:0A0000000C9436000C9400000C94E0
:10000A0000000C9400000C9400000C9400000C9466
:10001A0000000C9400000C9400000C9400000C9456
:10002A0086000C9400000C9400000C9400000C94C0
:10003A0000000C9400000C9400000C9400000C9436
:10004A0000000C9400000C94000064000000000002
:10005A00C0F9A4B0999282D8809006000400540096
:10006A000000F894EE27ECBBF1E0FBBFEBBFE5BF65
:10007A008DE0A2E0BB27ED938A95E9F780E098E04E
:10008A00A0E6ED930197E9F7E4E6F0E08591959112
:10009A00009761F0A591B59105901590BF01F00107
:1000AA0005900D920197E1F7FB01F0CFEFE5EDBF67
:1000BA00E8E0EEBFC0E6D2E00C9463002A978AE03B
:1000CA00A0E0B0E0EAE5F0E00E949E00EFEFE7BBB7
:1000DA00EABBE4BBE1BBEFE0E2BBEBE0E3BFEEE788
:1000EA00ECBFE2E0E9BF7894062C072841F4DE0170
:1000FA00A80DB91DEC91E095E5BB66247724F4CFF1
:10010A00FFCFEA93FA93EFB7EA93E1E0E2BBF30198
:10011A0031963F01E4E6F0E0E615F70529F4F4012B
:10012A0031964F0166247724E991EFBFF991E9915D
:10013A001895AC0FBD1F05900D928A95E1F70895A9
:00000001FF
