:0E0000000C943D000C9400000C9400000C9435
:10000E0000000C9400000C9400000C9400000C9462
:10001E0000000C9400000C9400000C9400000C9452
:10002E00B1000C9400000C9400000C9400000C9491
:10003E0000000C9400000C9400000C9400000C9432
:10004E0000000C940000FFFF00000000C0F9A4B0F7
:10005E00999282D8809080C00600040054000A0055
:10006E0060025A0002006A0264000000F894EE2753
:10007E00ECBBF1E0FBBFEBBFE5BF8DE0A2E0BB2721
:10008E00ED938A95E9F780E098E0A0E6ED9301976D
:10009E00E9F7E6E6F0E085919591009761F0A5917C
:1000AE00B59105901590BF01F00105900D92019745
:1000BE00E1F7FB01F0CFEFE5EDBFE8E0EEBFC0E604
:1000CE00D2E00C946A00EFEFFFEF2F01EABBE7BB23
:1000DE00E4BBE1BBE0E0EBBBE8BBE5BBEFE0E2BBC2
:1000EE00E3E0E3BFE3E8E2BFE0E0ECBFEFBDEEBD6F
:1000FE00EDBDECBDE7BDE6BDEBBDEABDE9BDE8BDBE
:10010E00E2BDE5BDE4BDE3BDE1E0E9BFE0E0E5BF92
:10011E00E4BFEAB9E0E8E8B9E0E0E0BFE6B9EDB97E
:10012E00E6BFA0E16CD07894F40131964F01EFEF69
:10013E00FFEFE415F50569F4A0E6B2E0A80DB91DD0
:10014E00EC91E095E5BBE0E0E8BBE4E6F0E02F01E2
:10015E00EECFFFCF0A921A92FA926A937A938A930B
:10016E009A93AA93BA93EA93FA93EFB7EA93E3E8D2
:10017E00E2BFF30131963F014614570441F4E1E02A
:10018E00E8BB66247724EFEFFFEF2F019CDFE991A8
:10019E00EFBFF991E991B991A991999189917991CD
:1001AE006991F990199009901895AA93EBB3EF7095
:1001BE00AE2FE881E07FEA2BEBBB8DE08A95F1F75D
:1001CE00DA9A8DE08A95F1F7DA988DE08A95F1F753
:1001DE003FC0AA93A881E9DFE881E295E883A88170
:1001EE00E4DF85E88A95F1F733C0A2E033D0ACE0C6
:1001FE00F0DFA1E02FD0E0E0AE2EBE2E0895AA9340
:10020E00EAB3E06FEABBD29AD09AD19ADA98D8982C
:10021E00D998D880E881E058E0936C02E881E054E8
:10022E00E0936D02A4E1B0E00E943D0118D017D01A
:10023E0016D0A0E2BADF88EC90E00197F1F7A8E2C1
:10024E00C8DFA4E0C6DFA5E8C4DFA6E0C2DFCDDFCD
:10025E0021960895BEDFA3E0B0E00C943D01A0E32B
:10026E00A4DF88EC90E00197F1F70895109639F02D
:10027E0080ED97E00197F1F7A8951197C9F70895CA
:00000001FF
