:020000000C945E
:1000020069010C9400000C9400000C9400000C9404
:1000120000000C9400000C9400000C9400000C945E
:1000220000000C9400000C94E7010C9400000C9466
:1000320000000C9400000C9400000C9400000C943E
:1000420000000C9400000C9400000C9400000C942E
:1000520000006400FFFF00000000C0F9A4B0999204
:1000620082D880906F6B206C6574277320737461E3
:10007200727400626173653A00656E555000656E78
:10008200444F574E00636F756E746572203A004894
:10009200656C6C6F2021006974277320636F756E25
:1000A2007465722100757365202A206173202320F4
:1000B200746F20616E73776572002A2069732079EC
:1000C20065732023206973206E6F0020202020207A
:1000D200202020202020202020202000476574207E
:1000E20073746172743F00456E7465722074686542
:1000F20020626173653A00796F757220626173657F
:100102002069733A00796F7520636F6E6669726D4C
:100112003F00796F752063616E20736565206261AF
:100122007365006F6E20375345474D454E542D2D54
:100132002D3E00436F756E74207570206F722064BF
:100142006F776E203F002320646F776E202020207F
:100152002A207570200073657420636F756E742099
:10016200646F776E0073657420636F756E742075AB
:100172007000486F77206C6F6E672069730064654A
:100182006C61793F20205820202A20316D73005362
:10019200686F756C6420492073746F7000616674B7
:1001A2006572206F776572666C6F773F0073746F4C
:1001B20070202A202020202020202000636F6E74CF
:1001C200696E756520232020202000202020202019
:1001D20020202020202020202020202020200063FA
:1001E2006F6E74696E7565203F00676F6F64627928
:1001F2006520000080C001002D4E414E00494E4650
:1002020000000800040054000A00F9035C000F001B
:100212006002660006006F027500050075027B0031
:100222000A007A0287000E008402990015009202E9
:10023200A7001100A702BC001100B802CD000B00FC
:10024200C902DE001000D402E9000E00E402F90047
:100252000D00F20207011100FF0214011000100349
:1002620025011300200335011000330348010F005C
:10027200430358010D00520367010C005F03740130
:1002820011006B03800102007C03DC000E007E0380
:10029200910110008C039F010F009C03AF010F001E
:1002A200AB03BE011400BA03CD011100CE03CD0091
:1002B2000400DF03DA000B00E303E1010900EE03AF
:1002C200EC0102000504F60101000C04F801000033
:1002D200F894EE27ECBBF1E0FBBFEBBFE5BF8DE08E
:1002E200A2E0BB27ED938A95E9F780E098E0A0E6CB
:1002F200ED930197E9F7E4E0F2E08591959100979B
:1003020061F0A591B59105901590BF01F00105909E
:100312000D920197E1F7FB01F0CFEFE5EDBFE8E0C9
:10032200EEBFC0E6D2E00C9496016097E8EFE7BB1F
:10033200EFEFE4BBEFE7E1BBE0E0EABBEBBBA0E140
:100342000E945805EBE0E3BFEDE7ECBFE2E0E9BF56
:1003520078945DD00E94B605A0E6B2E00E94BA058C
:100362000E94BD050E94C5050E94B605AFE6B2E037
:100372000E94BA050E94BD059A928A92DE011296E7
:100382000E9488050E94B605E7E0F0E00E94C905D8
:10039200A5E7B2E00E94BA05EAE0F0E00E94C905D2
:1003A200AAE7B2E00E94BA050E94D0059A928A9208
:1003B200E091F703EA93E091F803EA93A091030432
:1003C200B09104046AD2BDD26096FFCFEA93FA9349
:1003D200EFB7EA93F30131963F014614570429F42B
:1003E20066247724E1E0F0E05F01E991EFBFF99143
:1003F200E9911895BA93AA93488059806624772484
:100402000A2C0B28E9F3AA24BB240C940605609756
:100412000E9497060E94D805A1E9B0E00E94450516
:100422000E94DD05A4E8B2E00E94E2050E94D00528
:100432000E94C5050E94E505A2E9B2E00E94E2051C
:100442000E94BD050E94DD05A7EAB2E00E94E20516
:100452000E94D005A6E9B0E0CDDF0E94E505A8EB39
:10046200B2E00E94E205A9ECB2E00E94E2050E941D
:10047200D005CC24DD24E1E0F0E0EC15FD0519F017
:100482009BD16F01F8CFCC24DD240E94E505A4EDB9
:10049200B2E00E94E2050E94BD05E091F903E095F9
:1004A200E5BBE091F903E095E2BB11D18F01112385
:1004B2002AF40DD18F010E94E805F9CF0E94E805C8
:1004C200A9EFB3E0A00FB11FEC91E095E5BB0E944C
:1004D200EC05F801AAE0B0E00E945E068F01F7D0B9
:1004E2009F01A4E1B0E086DF332332F4D801EAE0D1
:1004F200F0E00E94760603C0F901E00FF11F8F01C0
:10050200D8010E94FB050E940006E2BB0E94EC0596
:10051200A4E1B0E06FDF0E94E505A4EEB2E00E9424
:10052200E2050E94BD050E940506EDE0EA93A0E007
:100532000E940B060E94DD05A2EFB2E00E94E205D6
:100542000E94D00539D16F010C2C0D2809F49DCFE2
:1005520048010E94E505AFEFB2E00E94E2050E9469
:10056200BD050E94DD05A0E1B3E00E94E2050E9404
:10057200D005D40178D10E94C5050E94DD05A0E214
:10058200B3E00E9411060E941406A3E3B3E00E94A6
:10059200E2050E94D00510D18F01002E012A11F030
:1005A200E1E001C0E0E0E093F703E03029F40E94CB
:1005B200DD05A3E4B3E004C00E94DD05A2E5B3E0DB
:1005C2000E94B9040E94E5050E94BD050E94C5056E
:1005D2000E94DD05AFE5B3E00E94E2050E94BD0581
:1005E2000E94DD05ABE6B3E00E94E2050E94D00561
:1005F20020E030E000E010E06AD08F01A8E2B0E035
:10060200F9DE1123FAF0E0910304F0910404AAE068
:10061200B0E00E945E06E0930304F0930404F80144
:10062200A0910304B0910404EA0FFB1FE0930304BA
:10063200F09304042F5F3F4F0E940506E22FEA5F0A
:100642000E941906E1E0F0E0E217F30749F40E9484
:10065200DD05ACE7B3E00E94B904E8E00E941906A8
:10066200112322F02630E0E03E070CF001C0C4CF97
:100672000E94E505AEE7B3E00E94E2050E94BD05D7
:100682000E94DD05ACE8B3E00E94E2050E94D005BD
:10069200A6E9B0E0AFDE0E94DD05ACE9B3E00E945E
:1006A20011060E941406ABEAB3E00E94B904E0E02E
:1006B2000E9419060E941C0611F4E0E001C0E1E06C
:1006C200E093F803C2D00E949C0664960895E8E085
:1006D200E8BBB09B07C00E94E805E0E0E8BBE3E0AE
:1006E200F0E00895B19B07C00E94E805E0E0E8BB96
:1006F200E2E0F0E00895B29B07C00E94E805E0E066
:10070200E8BBE1E0F0E00895E0E1E8BBB09B07C0A0
:100712000E94E805E0E0E8BBE6E0F0E00895B19B66
:1007220007C00E94E805E0E0E8BBE5E0F0E00895DC
:10073200B29B07C00E94E805E0E0E8BBE4E0F0E01D
:100742000895E0E2E8BBB09B07C00E94E805E0E044
:10075200E8BBE9E0F0E00895B19B07C00E94E8051C
:10076200E0E0E8BBE8E0F0E00895B29B07C00E9439
:10077200E805E0E0E8BBE7E0F0E00895E0E4E8BB8C
:10078200B09B07C00E94E805E0E0E8BBEEEFFFEF98
:100792000895B19B07C00E94E805E0E0E8BBE0E0F5
:1007A200F0E00895B29B07C00E94E805E0E0E8BBD4
:1007B200EFEFFFEF08958BCF1A930A9300E010E05A
:1007C20086DF8F011123E2F7EFEFFFEFE017F1076A
:1007D20019F4E1E0F0E002C0E0E0F0E009911991E3
:1007E2000895BA93AA930E94970630E0EE81EA93A5
:1007F200AD810E94F70400E010E00031E0E01E0746
:10080200B4F4A4E0B0E0F6DDE02FAE81EA0FEA93A3
:10081200AD810E94F704F801A885B985AE0FBF1F0C
:100822003C91A32F0E9416050F5F1F4FE6CFE8856C
:10083200F985FA93EA93AAEBB3E00E94B904E0E0E7
:10084200F0E00E949C062A96089560970E94B605E1
:10085200AEECB3E00E9411060E942406E0E00E9482
:10086200270660960895BA93AA93A881B9810E9437
:10087200FB05A881B981AE1BBF0BEAE0F0E00E9444
:1008820076060E940006E5BBA881B9810E94FB059D
:100892000E940006E2BB0C940605BA93AA936097E5
:1008A200879BFECFB79B02C0979B01C003C0E0E0CD
:1008B200F0E045C0EB89F0E0309719F0E1E0F0E0BC
:1008C20002C0EFEFFFEFAC89BD89EA0FFB1FEC8B93
:1008D200FD8BAC89BD89A436E0E0BE0721F0AF3FB5
:1008E200EFEFBE07D1F4EA89E03019F4E0E0F0E07E
:1008F20026C0EB89F0E0309719F0E0E0F0E002C0AA
:10090200E3E6F0E0EC8BFD8B0E94B605AFEDB3E0C1
:100912000E94B904EAE00E942706AC89BD89A3DFE0
:10092200EC89FD89FA93EA93DE0112960E9488050A
:10093200EAE00E942706A889B9895CDDB1CF6696F4
:10094200089560971A930A930E942C06A3EEB3E0CF
:100952000E9433060E941C0609F4E7DC0E942C0662
:10096200AEEEB3E00E9433061981088162960895C3
:10097200BA93AA93E991F991A991B991CD016191A3
:100982006D936623E1F7FC010895AA93E881E07173
:1009920011F0DB9A01C0DB98E881E07211F0DA9A7B
:1009A20001C0DA98E881E07411F0D99A01C0D998AF
:1009B200E881E07811F0D89A01C0D8988DE08A9544
:1009C200F1F7DC9A8DE08A95F1F7DC988DE08A9553
:1009D200F1F79BC0AA93A881D8DFE881E295E8836A
:1009E200A881D3DF85E88A95F1F78FC0AA93E881C1
:1009F200F0E0EB5FFB4FE081A981AE0FEBDFE98115
:100A0200E0930904E881E0930A0422960895A2E0A3
:100A12000E943A06ACE0DEDFA1E00E943A06E0E086
:100A2200E0930A04E09309040895AA93A881AA30E6
:100A320031F0E0910B04A0910904AE1760F0E0E000
:100A4200EA93A0910A04AF5FA0930A04CFDFA881C2
:100A5200AA3009F45AC0E0910904EF5FE093090457
:100A6200DE9AA881B7DFDE9850C0BA93AA931A9390
:100A7200A981BA81ED91A983BA831E2FE03019F0C2
:100A8200A12FD3DFF5CF10C0BA93AA931A93E981AD
:100A9200FA813196E983FA833197E4911E2FE0308F
:100AA20019F0A12FC2DFF3CF188123960895AA93DC
:100AB200D39AD29AD19AD09AD49AD69AD59ADC98C5
:100AC200DE98DD98E881E0930B04E058E093070498
:100AD200E881E054E0930804A4E1B0E00E944806F3
:100AE2000E9440060E9440060E944006A0E24DDF9E
:100AF20088EC90E00197F1F7A8E26CDFA4E06ADFEE
:100B0200A5E868DFA6E066DF82DF21960895BA9342
:100B1200AA93A991B991E991F99130962AF4E095B5
:100B2200F09531966DE26D93E89480E197E20DD0F5
:100B320088EE93E00AD084E6992707D08AE005D0B0
:100B42006E2F10D066276C9308956627E817F90771
:100B520020F06395E81BF90BC9F7662311F416F030
:100B620008956894605D6D930895FE01FA93EA9387
:100B720008950E94B904F9CFE0E0F0E0FA93EA9315
:100B8200A0E0B0E00C94F203A4E6B0E00C94FB0108
:100B9200FA93EA93A0E0B0E00E94F203E6CFE0E02D
:100BA200F0E0FA93EA93A1E0B0E00C94F203E0E003
:100BB200EA93A0E00C94F704FE013496FA93EA93C8
:100BC20008950E94B904F8CF0E942604F5CFA2E34B
:100BD200B0E00C94FB011A930A93DE0116960E9470
:100BE2008805E7E0EA93A1E00E94F704DE0114968B
:100BF2000C943605EAE0F0E00E947B060895E75087
:100C0200FC4FE081E09508951A930A93DE0116964F
:100C12000C9488050E94F704DE0114960C943605A4
:100C22000E94B904C4CFDE0114960E943605C4CFD7
:100C3200EA93A1E0EFCF0E94DD038F01E1E0F0E053
:100C4200E017F1070895DE010C943605EA93A1E05E
:100C52000E94F704F8CF0E942604FE013296FA930E
:100C6200EA9308950E94B904FE013296FA93EA9338
:100C720096CF0E94EB04A3E0B0E00C944806A0E3F8
:100C82000E94C60488EC90E00197F1F7089510964F
:100C920039F080ED97E00197F1F7A8951197C9F720
:100CA2000895F195E195F0400895FA9FF02DEB9F9C
:100CB200F00DEA9FE02DF10D08952AD0F6DF0EF433
:100CC200F0DF08950024112490E1AA0FBB1F001C3D
:100CD200111C0E1A1F0A18F40E0E1F1E01C0A1606D
:100CE2009A9599F7FD01D001089512D0EBDF0EF429
:100CF200D8DF0895E894B7FF04C0A095B095119687
:100D02006894F7FDCEDFDEDFFD010EF4CADF089541
:100D1200E894F7FF02C0C5DF6894B7FF06C0A0954C
:100D2200B095119600F8039400FA08953A932A9325
:100D32001A930A9308953B812A81198108810895A3
:00000001FF
